{
  "_format": "hh-sol-artifact-1",
  "contractName": "LearningToken",
  "sourceName": "contracts/LearningToken.sol",
  "abi": [
    {
      "inputs": [],
      "stateMutability": "nonpayable",
      "type": "constructor"
    },
    {
      "inputs": [
        {
          "internalType": "address",
          "name": "spender",
          "type": "address"
        },
        {
          "internalType": "uint256",
          "name": "allowance",
          "type": "uint256"
        },
        {
          "internalType": "uint256",
          "name": "needed",
          "type": "uint256"
        }
      ],
      "name": "ERC20InsufficientAllowance",
      "type": "error"
    },
    {
      "inputs": [
        {
          "internalType": "address",
          "name": "sender",
          "type": "address"
        },
        {
          "internalType": "uint256",
          "name": "balance",
          "type": "uint256"
        },
        {
          "internalType": "uint256",
          "name": "needed",
          "type": "uint256"
        }
      ],
      "name": "ERC20InsufficientBalance",
      "type": "error"
    },
    {
      "inputs": [
        {
          "internalType": "address",
          "name": "approver",
          "type": "address"
        }
      ],
      "name": "ERC20InvalidApprover",
      "type": "error"
    },
    {
      "inputs": [
        {
          "internalType": "address",
          "name": "receiver",
          "type": "address"
        }
      ],
      "name": "ERC20InvalidReceiver",
      "type": "error"
    },
    {
      "inputs": [
        {
          "internalType": "address",
          "name": "sender",
          "type": "address"
        }
      ],
      "name": "ERC20InvalidSender",
      "type": "error"
    },
    {
      "inputs": [
        {
          "internalType": "address",
          "name": "spender",
          "type": "address"
        }
      ],
      "name": "ERC20InvalidSpender",
      "type": "error"
    },
    {
      "inputs": [
        {
          "internalType": "address",
          "name": "owner",
          "type": "address"
        }
      ],
      "name": "OwnableInvalidOwner",
      "type": "error"
    },
    {
      "inputs": [
        {
          "internalType": "address",
          "name": "account",
          "type": "address"
        }
      ],
      "name": "OwnableUnauthorizedAccount",
      "type": "error"
    },
    {
      "inputs": [],
      "name": "ReentrancyGuardReentrantCall",
      "type": "error"
    },
    {
      "anonymous": false,
      "inputs": [
        {
          "indexed": true,
          "internalType": "address",
          "name": "owner",
          "type": "address"
        },
        {
          "indexed": true,
          "internalType": "address",
          "name": "spender",
          "type": "address"
        },
        {
          "indexed": false,
          "internalType": "uint256",
          "name": "value",
          "type": "uint256"
        }
      ],
      "name": "Approval",
      "type": "event"
    },
    {
      "anonymous": false,
      "inputs": [
        {
          "indexed": true,
          "internalType": "address",
          "name": "previousOwner",
          "type": "address"
        },
        {
          "indexed": true,
          "internalType": "address",
          "name": "newOwner",
          "type": "address"
        }
      ],
      "name": "OwnershipTransferred",
      "type": "event"
    },
    {
      "anonymous": false,
      "inputs": [
        {
          "indexed": true,
          "internalType": "address",
          "name": "from",
          "type": "address"
        },
        {
          "indexed": true,
          "internalType": "address",
          "name": "to",
          "type": "address"
        },
        {
          "indexed": false,
          "internalType": "uint256",
          "name": "value",
          "type": "uint256"
        }
      ],
      "name": "Transfer",
      "type": "event"
    },
    {
      "inputs": [],
      "name": "INITIAL_SUPPLY",
      "outputs": [
        {
          "internalType": "uint256",
          "name": "",
          "type": "uint256"
        }
      ],
      "stateMutability": "view",
      "type": "function"
    },
    {
      "inputs": [],
      "name": "REWARD_POOL",
      "outputs": [
        {
          "internalType": "uint256",
          "name": "",
          "type": "uint256"
        }
      ],
      "stateMutability": "view",
      "type": "function"
    },
    {
      "inputs": [
        {
          "internalType": "address",
          "name": "owner",
          "type": "address"
        },
        {
          "internalType": "address",
          "name": "spender",
          "type": "address"
        }
      ],
      "name": "allowance",
      "outputs": [
        {
          "internalType": "uint256",
          "name": "",
          "type": "uint256"
        }
      ],
      "stateMutability": "view",
      "type": "function"
    },
    {
      "inputs": [
        {
          "internalType": "address",
          "name": "spender",
          "type": "address"
        },
        {
          "internalType": "uint256",
          "name": "value",
          "type": "uint256"
        }
      ],
      "name": "approve",
      "outputs": [
        {
          "internalType": "bool",
          "name": "",
          "type": "bool"
        }
      ],
      "stateMutability": "nonpayable",
      "type": "function"
    },
    {
      "inputs": [
        {
          "internalType": "address",
          "name": "account",
          "type": "address"
        }
      ],
      "name": "balanceOf",
      "outputs": [
        {
          "internalType": "uint256",
          "name": "",
          "type": "uint256"
        }
      ],
      "stateMutability": "view",
      "type": "function"
    },
    {
      "inputs": [],
      "name": "decimals",
      "outputs": [
        {
          "internalType": "uint8",
          "name": "",
          "type": "uint8"
        }
      ],
      "stateMutability": "view",
      "type": "function"
    },
    {
      "inputs": [],
      "name": "name",
      "outputs": [
        {
          "internalType": "string",
          "name": "",
          "type": "string"
        }
      ],
      "stateMutability": "view",
      "type": "function"
    },
    {
      "inputs": [],
      "name": "owner",
      "outputs": [
        {
          "internalType": "address",
          "name": "",
          "type": "address"
        }
      ],
      "stateMutability": "view",
      "type": "function"
    },
    {
      "inputs": [],
      "name": "renounceOwnership",
      "outputs": [],
      "stateMutability": "nonpayable",
      "type": "function"
    },
    {
      "inputs": [],
      "name": "symbol",
      "outputs": [
        {
          "internalType": "string",
          "name": "",
          "type": "string"
        }
      ],
      "stateMutability": "view",
      "type": "function"
    },
    {
      "inputs": [],
      "name": "totalSupply",
      "outputs": [
        {
          "internalType": "uint256",
          "name": "",
          "type": "uint256"
        }
      ],
      "stateMutability": "view",
      "type": "function"
    },
    {
      "inputs": [
        {
          "internalType": "address",
          "name": "to",
          "type": "address"
        },
        {
          "internalType": "uint256",
          "name": "value",
          "type": "uint256"
        }
      ],
      "name": "transfer",
      "outputs": [
        {
          "internalType": "bool",
          "name": "",
          "type": "bool"
        }
      ],
      "stateMutability": "nonpayable",
      "type": "function"
    },
    {
      "inputs": [
        {
          "internalType": "address",
          "name": "from",
          "type": "address"
        },
        {
          "internalType": "address",
          "name": "to",
          "type": "address"
        },
        {
          "internalType": "uint256",
          "name": "value",
          "type": "uint256"
        }
      ],
      "name": "transferFrom",
      "outputs": [
        {
          "internalType": "bool",
          "name": "",
          "type": "bool"
        }
      ],
      "stateMutability": "nonpayable",
      "type": "function"
    },
    {
      "inputs": [
        {
          "internalType": "address",
          "name": "newOwner",
          "type": "address"
        }
      ],
      "name": "transferOwnership",
      "outputs": [],
      "stateMutability": "nonpayable",
      "type": "function"
    }
  ],
  "bytecode": "0x608060405234801561001057600080fd5b50336040518060400160405280600d81526020016c2632b0b93734b733aa37b5b2b760991b8152506040518060400160405280600381526020016213121560ea1b8152508160039081610063919061031f565b506004610070828261031f565b5050506001600160a01b0381166100a257604051631e4fbdf760e01b8152600060048201526024015b60405180910390fd5b6100ab816100ca565b5060016006556100c53369d3c21bcecceda100000061011c565b610404565b600580546001600160a01b038381166001600160a01b0319831681179093556040519116919082907f8be0079c531659141344cd1fd0a4f28419497f9722a3daafe3b4186f6b6457e090600090a35050565b6001600160a01b0382166101465760405163ec442f0560e01b815260006004820152602401610099565b61015260008383610156565b5050565b6001600160a01b03831661018157806002600082825461017691906103dd565b909155506101f39050565b6001600160a01b038316600090815260208190526040902054818110156101d45760405163391434e360e21b81526001600160a01b03851660048201526024810182905260448101839052606401610099565b6001600160a01b03841660009081526020819052604090209082900390555b6001600160a01b03821661020f5760028054829003905561022e565b6001600160a01b03821660009081526020819052604090208054820190555b816001600160a01b0316836001600160a01b03167fddf252ad1be2c89b69c2b068fc378daa952ba7f163c4a11628f55a4df523b3ef8360405161027391815260200190565b60405180910390a3505050565b634e487b7160e01b600052604160045260246000fd5b600181811c908216806102aa57607f821691505b6020821081036102ca57634e487b7160e01b600052602260045260246000fd5b50919050565b601f82111561031a57806000526020600020601f840160051c810160208510156102f75750805b601f840160051c820191505b818110156103175760008155600101610303565b50505b505050565b81516001600160401b0381111561033857610338610280565b61034c816103468454610296565b846102d0565b6020601f82116001811461038057600083156103685750848201515b600019600385901b1c1916600184901b178455610317565b600084815260208120601f198516915b828110156103b05787850151825560209485019460019092019101610390565b50848210156103ce5786840151600019600387901b60f8161c191681555b50505050600190811b01905550565b808201808211156103fe57634e487b7160e01b600052601160045260246000fd5b92915050565b6108d4806104136000396000f3fe608060405234801561001057600080fd5b50600436106100ea5760003560e01c8063715018a61161008c57806399f91c281161006657806399f91c28146101cb578063a9059cbb146101d3578063dd62ed3e146101e6578063f2fde38b1461021f57600080fd5b8063715018a61461019e5780638da5cb5b146101a857806395d89b41146101c357600080fd5b806323b872dd116100c857806323b872dd146101425780632ff2e9dc14610155578063313ce5671461016657806370a082311461017557600080fd5b806306fdde03146100ef578063095ea7b31461010d57806318160ddd14610130575b600080fd5b6100f7610232565b60405161010491906106fb565b60405180910390f35b61012061011b366004610765565b6102c4565b6040519015158152602001610104565b6002545b604051908152602001610104565b61012061015036600461078f565b6102de565b61013469d3c21bcecceda100000081565b60405160128152602001610104565b6101346101833660046107cc565b6001600160a01b031660009081526020819052604090205490565b6101a6610302565b005b6005546040516001600160a01b039091168152602001610104565b6100f7610316565b610134610325565b6101206101e1366004610765565b61033d565b6101346101f43660046107ee565b6001600160a01b03918216600090815260016020908152604080832093909416825291909152205490565b6101a661022d3660046107cc565b61034b565b60606003805461024190610821565b80601f016020809104026020016040519081016040528092919081815260200182805461026d90610821565b80156102ba5780601f1061028f576101008083540402835291602001916102ba565b820191906000526020600020905b81548152906001019060200180831161029d57829003601f168201915b5050505050905090565b6000336102d281858561038e565b60019150505b92915050565b6000336102ec8582856103a0565b6102f785858561041e565b506001949350505050565b61030a61047d565b61031460006104aa565b565b60606004805461024190610821565b61033a600269d3c21bcecceda100000061085b565b81565b6000336102d281858561041e565b61035361047d565b6001600160a01b03811661038257604051631e4fbdf760e01b8152600060048201526024015b60405180910390fd5b61038b816104aa565b50565b61039b83838360016104fc565b505050565b6001600160a01b038381166000908152600160209081526040808320938616835292905220546000198114610418578181101561040957604051637dc7a0d960e11b81526001600160a01b03841660048201526024810182905260448101839052606401610379565b610418848484840360006104fc565b50505050565b6001600160a01b03831661044857604051634b637e8f60e11b815260006004820152602401610379565b6001600160a01b0382166104725760405163ec442f0560e01b815260006004820152602401610379565b61039b8383836105d1565b6005546001600160a01b031633146103145760405163118cdaa760e01b8152336004820152602401610379565b600580546001600160a01b038381166001600160a01b0319831681179093556040519116919082907f8be0079c531659141344cd1fd0a4f28419497f9722a3daafe3b4186f6b6457e090600090a35050565b6001600160a01b0384166105265760405163e602df0560e01b815260006004820152602401610379565b6001600160a01b03831661055057604051634a1406b160e11b815260006004820152602401610379565b6001600160a01b038085166000908152600160209081526040808320938716835292905220829055801561041857826001600160a01b0316846001600160a01b03167f8c5be1e5ebec7d5bd14f71427d1e84f3dd0314c0f7b2291e5b200ac8c7c3b925846040516105c391815260200190565b60405180910390a350505050565b6001600160a01b0383166105fc5780600260008282546105f1919061087d565b9091555061066e9050565b6001600160a01b0383166000908152602081905260409020548181101561064f5760405163391434e360e21b81526001600160a01b03851660048201526024810182905260448101839052606401610379565b6001600160a01b03841660009081526020819052604090209082900390555b6001600160a01b03821661068a576002805482900390556106a9565b6001600160a01b03821660009081526020819052604090208054820190555b816001600160a01b0316836001600160a01b03167fddf252ad1be2c89b69c2b068fc378daa952ba7f163c4a11628f55a4df523b3ef836040516106ee91815260200190565b60405180910390a3505050565b602081526000825180602084015260005b81811015610729576020818601810151604086840101520161070c565b506000604082850101526040601f19601f83011684010191505092915050565b80356001600160a01b038116811461076057600080fd5b919050565b6000806040838503121561077857600080fd5b61078183610749565b946020939093013593505050565b6000806000606084860312156107a457600080fd5b6107ad84610749565b92506107bb60208501610749565b929592945050506040919091013590565b6000602082840312156107de57600080fd5b6107e782610749565b9392505050565b6000806040838503121561080157600080fd5b61080a83610749565b915061081860208401610749565b90509250929050565b600181811c9082168061083557607f821691505b60208210810361085557634e487b7160e01b600052602260045260246000fd5b50919050565b60008261087857634e487b7160e01b600052601260045260246000fd5b500490565b808201808211156102d857634e487b7160e01b600052601160045260246000fdfea264697066735822122045a88ed56380608e5f10dbbcaf522f5393ae727cf84f9f3324c8da9c2f552c6f64736f6c634300081c0033",
  "linkReferences": {},
  "deployedLinkReferences": {}
}