{
  "_format": "hh-sol-artifact-1",
  "contractName": "QuestManager",
  "sourceName": "contracts/QuestManager.sol",
  "abi": [
    {
      "inputs": [
        {
          "internalType": "address",
          "name": "_stakingContract",
          "type": "address"
        },
        {
          "internalType": "address",
          "name": "_learningToken",
          "type": "address"
        }
      ],
      "stateMutability": "nonpayable",
      "type": "constructor"
    },
    {
      "anonymous": false,
      "inputs": [
        {
          "indexed": true,
          "internalType": "uint256",
          "name": "questId",
          "type": "uint256"
        },
        {
          "indexed": false,
          "internalType": "string",
          "name": "description",
          "type": "string"
        },
        {
          "indexed": false,
          "internalType": "uint256",
          "name": "rewardPool",
          "type": "uint256"
        }
      ],
      "name": "QuestCreated",
      "type": "event"
    },
    {
      "anonymous": false,
      "inputs": [
        {
          "indexed": true,
          "internalType": "uint256",
          "name": "questId",
          "type": "uint256"
        },
        {
          "indexed": true,
          "internalType": "address",
          "name": "participant",
          "type": "address"
        },
        {
          "indexed": false,
          "internalType": "uint256",
          "name": "amount",
          "type": "uint256"
        }
      ],
      "name": "RewardPaid",
      "type": "event"
    },
    {
      "anonymous": false,
      "inputs": [
        {
          "indexed": true,
          "internalType": "uint256",
          "name": "questId",
          "type": "uint256"
        }
      ],
      "name": "RewardsDistributed",
      "type": "event"
    },
    {
      "anonymous": false,
      "inputs": [
        {
          "indexed": true,
          "internalType": "uint256",
          "name": "questId",
          "type": "uint256"
        },
        {
          "indexed": true,
          "internalType": "address",
          "name": "participant",
          "type": "address"
        }
      ],
      "name": "SolutionSubmitted",
      "type": "event"
    },
    {
      "anonymous": false,
      "inputs": [
        {
          "indexed": true,
          "internalType": "uint256",
          "name": "questId",
          "type": "uint256"
        },
        {
          "indexed": true,
          "internalType": "address",
          "name": "voter",
          "type": "address"
        },
        {
          "indexed": true,
          "internalType": "address",
          "name": "participant",
          "type": "address"
        }
      ],
      "name": "VoteCast",
      "type": "event"
    },
    {
      "inputs": [
        {
          "internalType": "string",
          "name": "_description",
          "type": "string"
        },
        {
          "internalType": "uint256",
          "name": "_rewardPool",
          "type": "uint256"
        },
        {
          "internalType": "uint256",
          "name": "_votingDuration",
          "type": "uint256"
        },
        {
          "internalType": "uint256",
          "name": "_topParticipants",
          "type": "uint256"
        }
      ],
      "name": "createQuest",
      "outputs": [],
      "stateMutability": "nonpayable",
      "type": "function"
    },
    {
      "inputs": [
        {
          "internalType": "uint256",
          "name": "_questId",
          "type": "uint256"
        }
      ],
      "name": "distributeRewards",
      "outputs": [],
      "stateMutability": "nonpayable",
      "type": "function"
    },
    {
      "inputs": [
        {
          "internalType": "uint256",
          "name": "",
          "type": "uint256"
        },
        {
          "internalType": "address",
          "name": "",
          "type": "address"
        }
      ],
      "name": "hasVoted",
      "outputs": [
        {
          "internalType": "bool",
          "name": "",
          "type": "bool"
        }
      ],
      "stateMutability": "view",
      "type": "function"
    },
    {
      "inputs": [],
      "name": "learningToken",
      "outputs": [
        {
          "internalType": "contract ILearningToken",
          "name": "",
          "type": "address"
        }
      ],
      "stateMutability": "view",
      "type": "function"
    },
    {
      "inputs": [],
      "name": "questCount",
      "outputs": [
        {
          "internalType": "uint256",
          "name": "",
          "type": "uint256"
        }
      ],
      "stateMutability": "view",
      "type": "function"
    },
    {
      "inputs": [
        {
          "internalType": "uint256",
          "name": "",
          "type": "uint256"
        },
        {
          "internalType": "uint256",
          "name": "",
          "type": "uint256"
        }
      ],
      "name": "questSolutions",
      "outputs": [
        {
          "internalType": "address",
          "name": "participant",
          "type": "address"
        },
        {
          "internalType": "string",
          "name": "githubLink",
          "type": "string"
        },
        {
          "internalType": "string",
          "name": "websiteLink",
          "type": "string"
        },
        {
          "internalType": "uint256",
          "name": "voteCount",
          "type": "uint256"
        }
      ],
      "stateMutability": "view",
      "type": "function"
    },
    {
      "inputs": [
        {
          "internalType": "uint256",
          "name": "",
          "type": "uint256"
        }
      ],
      "name": "quests",
      "outputs": [
        {
          "internalType": "string",
          "name": "description",
          "type": "string"
        },
        {
          "internalType": "uint256",
          "name": "rewardPool",
          "type": "uint256"
        },
        {
          "internalType": "uint256",
          "name": "votingEndTime",
          "type": "uint256"
        },
        {
          "internalType": "uint256",
          "name": "topParticipants",
          "type": "uint256"
        },
        {
          "internalType": "bool",
          "name": "isActive",
          "type": "bool"
        },
        {
          "internalType": "bool",
          "name": "rewardsDistributed",
          "type": "bool"
        }
      ],
      "stateMutability": "view",
      "type": "function"
    },
    {
      "inputs": [],
      "name": "stakingContract",
      "outputs": [
        {
          "internalType": "contract Staking",
          "name": "",
          "type": "address"
        }
      ],
      "stateMutability": "view",
      "type": "function"
    },
    {
      "inputs": [
        {
          "internalType": "uint256",
          "name": "_questId",
          "type": "uint256"
        },
        {
          "internalType": "string",
          "name": "_githubLink",
          "type": "string"
        },
        {
          "internalType": "string",
          "name": "_websiteLink",
          "type": "string"
        }
      ],
      "name": "submitSolution",
      "outputs": [],
      "stateMutability": "nonpayable",
      "type": "function"
    },
    {
      "inputs": [
        {
          "internalType": "uint256",
          "name": "_questId",
          "type": "uint256"
        },
        {
          "internalType": "uint256",
          "name": "_solutionIndex",
          "type": "uint256"
        }
      ],
      "name": "vote",
      "outputs": [],
      "stateMutability": "nonpayable",
      "type": "function"
    }
  ],
  "bytecode": "0x6080604052348015600f57600080fd5b506040516117ae3803806117ae833981016040819052602c916077565b600480546001600160a01b039384166001600160a01b0319918216179091556005805492909316911617905560a5565b80516001600160a01b0381168114607257600080fd5b919050565b60008060408385031215608957600080fd5b609083605c565b9150609c60208401605c565b90509250929050565b6116fa806100b46000396000f3fe608060405234801561001057600080fd5b506004361061009e5760003560e01c8063961eab8411610066578063961eab8414610164578063b384abef14610177578063c8f926fb1461018a578063e085f9801461019d578063ee99205c146101c257600080fd5b806332825aee146100a35780633970ab43146100cf57806343859632146100e657806359974e381461012457806385d4afde14610139575b600080fd5b6100b66100b13660046110d0565b6101d5565b6040516100c69493929190611138565b60405180910390f35b6100d860035481565b6040519081526020016100c6565b6101146100f4366004611180565b600260209081526000928352604080842090915290825290205460ff1681565b60405190151581526020016100c6565b6101376101323660046111bc565b610339565b005b60055461014c906001600160a01b031681565b6040516001600160a01b0390911681526020016100c6565b61013761017236600461127a565b610969565b6101376101853660046110d0565b610ab1565b6101376101983660046112ec565b610d50565b6101b06101ab3660046111bc565b61100d565b6040516100c696959493929190611340565b60045461014c906001600160a01b031681565b600160205281600052604060002081815481106101f157600080fd5b6000918252602090912060049091020180546001820180546001600160a01b03909216945091925061022290611380565b80601f016020809104026020016040519081016040528092919081815260200182805461024e90611380565b801561029b5780601f106102705761010080835404028352916020019161029b565b820191906000526020600020905b81548152906001019060200180831161027e57829003601f168201915b5050505050908060020180546102b090611380565b80601f01602080910402602001604051908101604052809291908181526020018280546102dc90611380565b80156103295780601f106102fe57610100808354040283529160200191610329565b820191906000526020600020905b81548152906001019060200180831161030c57829003601f168201915b5050505050908060030154905084565b6000818152602081905260409020600481015460ff166103745760405162461bcd60e51b815260040161036b906113ba565b60405180910390fd5b80600201544210156103c85760405162461bcd60e51b815260206004820152601760248201527f566f74696e6720706572696f64206e6f7420656e646564000000000000000000604482015260640161036b565b6004810154610100900460ff16156104225760405162461bcd60e51b815260206004820152601b60248201527f5265776172647320616c72656164792064697374726962757465640000000000604482015260640161036b565b600082815260016020526040902080546104775760405162461bcd60e51b8152602060048201526016602482015275139bc81cdbdb1d5d1a5bdb9cc81cdd589b5a5d1d195960521b604482015260640161036b565b60005b8154610488906001906113fd565b8110156107b25760005b82546001906104a29084906113fd565b6104ac91906113fd565b8110156107a957826104bf826001611416565b815481106104cf576104cf611429565b9060005260206000209060040201600301548382815481106104f3576104f3611429565b90600052602060002090600402016003015410156107a157600083828154811061051f5761051f611429565b6000918252602091829020604080516080810190915260049092020180546001600160a01b03168252600181018054929391929184019161055f90611380565b80601f016020809104026020016040519081016040528092919081815260200182805461058b90611380565b80156105d85780601f106105ad576101008083540402835291602001916105d8565b820191906000526020600020905b8154815290600101906020018083116105bb57829003601f168201915b505050505081526020016002820180546105f190611380565b80601f016020809104026020016040519081016040528092919081815260200182805461061d90611380565b801561066a5780601f1061063f5761010080835404028352916020019161066a565b820191906000526020600020905b81548152906001019060200180831161064d57829003601f168201915b5050505050815260200160038201548152505090508382600161068d9190611416565b8154811061069d5761069d611429565b90600052602060002090600402018483815481106106bd576106bd611429565b60009182526020909120825460049092020180546001600160a01b0319166001600160a01b039092169190911781556001808201906106fe9084018261148e565b506002818101906107119084018261148e565b506003918201549101558084610728846001611416565b8154811061073857610738611429565b600091825260209182902083516004929092020180546001600160a01b0319166001600160a01b0390921691909117815590820151600182019061077c908261156e565b5060408201516002820190610791908261156e565b5060608201518160030155905050505b600101610492565b5060010161047a565b506000826003015483600101546107c99190611625565b82546003850154919250600091116107e55783600301546107e8565b82545b905060005b8181101561092557600084828154811061080957610809611429565b600091825260209091206004918202015460055460405163a9059cbb60e01b81526001600160a01b0392831693810184905260248101889052929350169063a9059cbb906044016020604051808303816000875af115801561086f573d6000803e3d6000fd5b505050506040513d601f19601f820116820180604052508101906108939190611647565b6108d85760405162461bcd60e51b815260206004820152601660248201527514995dd85c99081d1c985b9cd9995c8819985a5b195960521b604482015260640161036b565b806001600160a01b0316877f04492fab062412e7e4e5f46c9e919f1640652946a5e163ad6e6c1c03d87954d28660405161091491815260200190565b60405180910390a3506001016107ed565b5060048401805461ffff191661010017905560405185907f6d1c76d614228b523baa4dcd9539e2c713b54ff4ab3ff2d1627e7f6cd32be44290600090a25050505050565b6000838152602081905260409020600481015460ff1661099b5760405162461bcd60e51b815260040161036b906113ba565b806002015442106109e85760405162461bcd60e51b8152602060048201526017602482015276159bdd1a5b99c81c195c9a5bd9081a185cc8195b991959604a1b604482015260640161036b565b60008481526001602081815260408084208151608081018352338152808401898152928101889052606081018690528154808601835591865292909420825160049095020180546001600160a01b0319166001600160a01b0390951694909417845551909291820190610a5b908261156e565b5060408201516002820190610a70908261156e565b5060609190910151600390910155604051339085907f329e271c3661a59f0033b686a9a95b6691445bf3b5707e10995a485a6fafd68e90600090a350505050565b6000828152602081905260409020600481015460ff16610ae35760405162461bcd60e51b815260040161036b906113ba565b80600201544210610b305760405162461bcd60e51b8152602060048201526017602482015276159bdd1a5b99c81c195c9a5bd9081a185cc8195b991959604a1b604482015260640161036b565b600083815260026020908152604080832033845290915290205460ff1615610b8a5760405162461bcd60e51b815260206004820152600d60248201526c105b1c9958591e481d9bdd1959609a1b604482015260640161036b565b6000838152600160205260409020548210610be05760405162461bcd60e51b8152602060048201526016602482015275092dcecc2d8d2c840e6ded8eae8d2dedc40d2dcc8caf60531b604482015260640161036b565b6004805460405163ba69d80d60e01b815233928101929092526000916001600160a01b039091169063ba69d80d90602401602060405180830381865afa158015610c2e573d6000803e3d6000fd5b505050506040513d601f19601f82011682018060405250810190610c529190611670565b905060008111610ca45760405162461bcd60e51b815260206004820152601f60248201527f4d7573742068617665207374616b656420746f6b656e7320746f20766f746500604482015260640161036b565b6000848152600160205260408120805485908110610cc457610cc4611429565b9060005260206000209060040201905081816003016000828254610ce89190611416565b90915550506000858152600260209081526040808320338085529252808320805460ff19166001179055835490516001600160a01b03919091169288917fcfff1651bcea794952a516ce970ab17518a85210bd939aaeaac670a8d3e65ec79190a45050505050565b60008311610da05760405162461bcd60e51b815260206004820152601c60248201527f52657761726420706f6f6c206d75737420626520706f73697469766500000000604482015260640161036b565b60008211610df05760405162461bcd60e51b815260206004820181905260248201527f566f74696e67206475726174696f6e206d75737420626520706f736974697665604482015260640161036b565b60008111610e405760405162461bcd60e51b815260206004820152601d60248201527f4d7573742068617665206174206c65617374206f6e652077696e6e6572000000604482015260640161036b565b6005546040516323b872dd60e01b8152336004820152306024820152604481018590526001600160a01b03909116906323b872dd906064016020604051808303816000875af1158015610e97573d6000803e3d6000fd5b505050506040513d601f19601f82011682018060405250810190610ebb9190611647565b610f075760405162461bcd60e51b815260206004820152601e60248201527f4661696c656420746f207472616e736665722072657761726420706f6f6c0000604482015260640161036b565b6003805460009182610f1883611689565b9190505590506040518060c001604052808681526020018581526020018442610f419190611416565b8152602080820185905260016040808401919091526000606090930183905284835290829052902081518190610f77908261156e565b506020820151600182015560408083015160028301556060830151600383015560808301516004909201805460a09094015115156101000261ff00199315159390931661ffff1990941693909317919091179091555181907f5a053b0d56754cd3a270176122cefeb5c24c7b584cc5f37a0c623cfae3e0259f90610ffe90889088906116a2565b60405180910390a25050505050565b60006020819052908152604090208054819061102890611380565b80601f016020809104026020016040519081016040528092919081815260200182805461105490611380565b80156110a15780601f10611076576101008083540402835291602001916110a1565b820191906000526020600020905b81548152906001019060200180831161108457829003601f168201915b505050506001830154600284015460038501546004909501549394919390925060ff8082169161010090041686565b600080604083850312156110e357600080fd5b50508035926020909101359150565b6000815180845260005b81811015611118576020818501810151868301820152016110fc565b506000602082860101526020601f19601f83011685010191505092915050565b6001600160a01b038516815260806020820181905260009061115c908301866110f2565b828103604084015261116e81866110f2565b91505082606083015295945050505050565b6000806040838503121561119357600080fd5b8235915060208301356001600160a01b03811681146111b157600080fd5b809150509250929050565b6000602082840312156111ce57600080fd5b5035919050565b634e487b7160e01b600052604160045260246000fd5b600082601f8301126111fc57600080fd5b813567ffffffffffffffff811115611216576112166111d5565b604051601f8201601f19908116603f0116810167ffffffffffffffff81118282101715611245576112456111d5565b60405281815283820160200185101561125d57600080fd5b816020850160208301376000918101602001919091529392505050565b60008060006060848603121561128f57600080fd5b83359250602084013567ffffffffffffffff8111156112ad57600080fd5b6112b9868287016111eb565b925050604084013567ffffffffffffffff8111156112d657600080fd5b6112e2868287016111eb565b9150509250925092565b6000806000806080858703121561130257600080fd5b843567ffffffffffffffff81111561131957600080fd5b611325878288016111eb565b97602087013597506040870135966060013595509350505050565b60c08152600061135360c08301896110f2565b6020830197909752506040810194909452606084019290925215156080830152151560a090910152919050565b600181811c9082168061139457607f821691505b6020821081036113b457634e487b7160e01b600052602260045260246000fd5b50919050565b6020808252601390820152725175657374206973206e6f742061637469766560681b604082015260600190565b634e487b7160e01b600052601160045260246000fd5b81810381811115611410576114106113e7565b92915050565b80820180821115611410576114106113e7565b634e487b7160e01b600052603260045260246000fd5b601f82111561148957806000526020600020601f840160051c810160208510156114665750805b601f840160051c820191505b818110156114865760008155600101611472565b50505b505050565b818103611499575050565b6114a38254611380565b67ffffffffffffffff8111156114bb576114bb6111d5565b6114cf816114c98454611380565b8461143f565b6000601f82116001811461150657600083156114eb5750848201545b600184901b600019600386901b1c198216175b855550611486565b600085815260209020601f19841690600086815260209020845b838110156115405782860154825560019586019590910190602001611520565b508583101561155e5781850154600019600388901b60f8161c191681555b5050505050600190811b01905550565b815167ffffffffffffffff811115611588576115886111d5565b611596816114c98454611380565b6020601f8211600181146115c857600083156114eb575081850151600184901b600019600386901b1c198216176114fe565b600084815260208120601f198516915b828110156115f857878501518255602094850194600190920191016115d8565b50848210156116165786840151600019600387901b60f8161c191681555b50505050600190811b01905550565b60008261164257634e487b7160e01b600052601260045260246000fd5b500490565b60006020828403121561165957600080fd5b8151801515811461166957600080fd5b9392505050565b60006020828403121561168257600080fd5b5051919050565b60006001820161169b5761169b6113e7565b5060010190565b6040815260006116b560408301856110f2565b9050826020830152939250505056fea26469706673582212203683099f23dd6d53d9cc190b17a6c930eb103eacc2844afff9d4910c9fc3133b64736f6c634300081c0033",
  "linkReferences": {},
  "deployedLinkReferences": {}
}