{
  "_format": "hh-sol-artifact-1",
  "contractName": "Staking",
  "sourceName": "contracts/Staking.sol",
  "abi": [
    {
      "inputs": [
        {
          "internalType": "address",
          "name": "_token",
          "type": "address"
        }
      ],
      "stateMutability": "nonpayable",
      "type": "constructor"
    },
    {
      "anonymous": false,
      "inputs": [
        {
          "indexed": true,
          "internalType": "address",
          "name": "user",
          "type": "address"
        },
        {
          "indexed": false,
          "internalType": "uint256",
          "name": "amount",
          "type": "uint256"
        }
      ],
      "name": "Staked",
      "type": "event"
    },
    {
      "anonymous": false,
      "inputs": [
        {
          "indexed": true,
          "internalType": "address",
          "name": "user",
          "type": "address"
        },
        {
          "indexed": false,
          "internalType": "uint256",
          "name": "amount",
          "type": "uint256"
        }
      ],
      "name": "Unstaked",
      "type": "event"
    },
    {
      "inputs": [
        {
          "internalType": "uint256",
          "name": "_amount",
          "type": "uint256"
        },
        {
          "internalType": "uint256",
          "name": "_timestamp",
          "type": "uint256"
        }
      ],
      "name": "calculateWeight",
      "outputs": [
        {
          "internalType": "uint256",
          "name": "",
          "type": "uint256"
        }
      ],
      "stateMutability": "view",
      "type": "function"
    },
    {
      "inputs": [
        {
          "internalType": "address",
          "name": "_user",
          "type": "address"
        }
      ],
      "name": "getStakeWeight",
      "outputs": [
        {
          "internalType": "uint256",
          "name": "",
          "type": "uint256"
        }
      ],
      "stateMutability": "view",
      "type": "function"
    },
    {
      "inputs": [
        {
          "internalType": "uint256",
          "name": "_amount",
          "type": "uint256"
        }
      ],
      "name": "stake",
      "outputs": [],
      "stateMutability": "nonpayable",
      "type": "function"
    },
    {
      "inputs": [
        {
          "internalType": "address",
          "name": "",
          "type": "address"
        }
      ],
      "name": "stakes",
      "outputs": [
        {
          "internalType": "uint256",
          "name": "amount",
          "type": "uint256"
        },
        {
          "internalType": "uint256",
          "name": "timestamp",
          "type": "uint256"
        },
        {
          "internalType": "uint256",
          "name": "weight",
          "type": "uint256"
        }
      ],
      "stateMutability": "view",
      "type": "function"
    },
    {
      "inputs": [],
      "name": "token",
      "outputs": [
        {
          "internalType": "contract LearningToken",
          "name": "",
          "type": "address"
        }
      ],
      "stateMutability": "view",
      "type": "function"
    },
    {
      "inputs": [
        {
          "internalType": "uint256",
          "name": "_amount",
          "type": "uint256"
        }
      ],
      "name": "unstake",
      "outputs": [],
      "stateMutability": "nonpayable",
      "type": "function"
    }
  ],
  "bytecode": "0x6080604052348015600f57600080fd5b5060405161064a38038061064a833981016040819052602c916050565b600180546001600160a01b0319166001600160a01b0392909216919091179055607e565b600060208284031215606157600080fd5b81516001600160a01b0381168114607757600080fd5b9392505050565b6105bd8061008d6000396000f3fe608060405234801561001057600080fd5b50600436106100625760003560e01c806316934fc41461006757806317999384146100b65780632e17de78146100d7578063a694fc3a146100ec578063ba69d80d146100ff578063fc0c546a1461012b575b600080fd5b610096610075366004610485565b60006020819052908152604090208054600182015460029092015490919083565b604080519384526020840192909252908201526060015b60405180910390f35b6100c96100c43660046104b5565b610156565b6040519081526020016100ad565b6100ea6100e53660046104d7565b610191565b005b6100ea6100fa3660046104d7565b610312565b6100c961010d366004610485565b6001600160a01b031660009081526020819052604090206002015490565b60015461013e906001600160a01b031681565b6040516001600160a01b0390911681526020016100ad565b6000806101638342610506565b90506101726201518082610519565b61017d90600161053b565b610187908561054e565b9150505b92915050565b33600090815260208190526040902080548211156101f65760405162461bcd60e51b815260206004820152601a60248201527f496e73756666696369656e74207374616b656420616d6f756e7400000000000060448201526064015b60405180910390fd5b8181600001600082825461020a9190610506565b9091555050805460018201546102209190610156565b600282015560015460405163a9059cbb60e01b8152336004820152602481018490526001600160a01b039091169063a9059cbb906044016020604051808303816000875af1158015610276573d6000803e3d6000fd5b505050506040513d601f19601f8201168201806040525081019061029a9190610565565b6102d85760405162461bcd60e51b815260206004820152600f60248201526e151c985b9cd9995c8819985a5b1959608a1b60448201526064016101ed565b60405182815233907f0f5bb82176feb1b5e747e28471aa92156a04d9f3ab9f45f28e2d704232b93f75906020015b60405180910390a25050565b6000811161035a5760405162461bcd60e51b815260206004820152601560248201527443616e6e6f74207374616b65203020746f6b656e7360581b60448201526064016101ed565b6001546040516323b872dd60e01b8152336004820152306024820152604481018390526001600160a01b03909116906323b872dd906064016020604051808303816000875af11580156103b1573d6000803e3d6000fd5b505050506040513d601f19601f820116820180604052508101906103d59190610565565b6104135760405162461bcd60e51b815260206004820152600f60248201526e151c985b9cd9995c8819985a5b1959608a1b60448201526064016101ed565b33600090815260208190526040812080549091839183919061043690849061053b565b90915550504260018201819055815461044e91610156565b600282015560405182815233907f9e71bc8eea02a63969f509818f2dafb9254532904319f9dbda79b67bd34a5f3d90602001610306565b60006020828403121561049757600080fd5b81356001600160a01b03811681146104ae57600080fd5b9392505050565b600080604083850312156104c857600080fd5b50508035926020909101359150565b6000602082840312156104e957600080fd5b5035919050565b634e487b7160e01b600052601160045260246000fd5b8181038181111561018b5761018b6104f0565b60008261053657634e487b7160e01b600052601260045260246000fd5b500490565b8082018082111561018b5761018b6104f0565b808202811582820484141761018b5761018b6104f0565b60006020828403121561057757600080fd5b815180151581146104ae57600080fdfea26469706673582212203814414ee160a65f42f97cb7da100112f71fa88b36b21174e099c730b517101764736f6c634300081c0033",
  "linkReferences": {},
  "deployedLinkReferences": {}
}